:10000000000002209901000025490000DD480000A1
:10001000DD480000DD480000DD480000DD4800004C
:10002000DD480000DD480000DD48000025490000F3
:1000300025490000DD480000916A0000956B000032
:1000400025490000254900002549000025490000F8
:1000500025490000254900002549000025490000E8
:1000600025490000254900002549000025490000D8
:1000700025490000254900002549000025490000C8
:1000800025490000254900002549000025490000B8
:1000900025490000254900002549000025490000A8
:1000A0003544000041440000254900002549000076
:1000B0002549000025490000254900009D54000005
:1000C000254900008172000025490000AD73000041
:1000D00025490000E95A0000254900002549000093
:1000E0002549000025490000254900002549000058
:1000F0002549000025490000254900002549000048
:100100002549000025490000254900002549000037
:1001100025490000315D0000254900002549000007
:100120002549000025490000254900002549000017
:100130002549000025490000254900002549000007
:100140002549000025490000A5740000254900004C
:100150009D75000025490000254900002549000043
:1001600025490000254900004D44000025490000B4
:1001700025490000254900002549000025490000C7
:1001800025490000254900002549000025490000B7
:100190002549000025490000584B4CF2205210B56B
:1001A0001A804DF628121A8000BF00BF04F0BEFB73
:1001B000534B4FF030621A60524A9A60524ADA60EA
:1001C000524B4FF470021A60514A136813F4807353
:1001D00004D150490B604FF4A85313604E4B1A786A
:1001E000110703D51A7842F008021A704B4B4C499C
:1001F0002A221A704B4A4C4B8B4204D252F8040FFD
:1002000043F8040BF8E7494B494900228B4202D2DC
:1002100043F8042BFAE74749474A002352F82300E2
:1002200041F823000133662BF8D1444B444A802126
:1002300003F8011B9342FBD1424B3E4A1A60424BEA
:100240008A221A70A3F5805324225A70A0221A70B1
:100250009A799207FCD59A79D406FCD43B4A9379D3
:1002600003F00C03082B394BF9D103221A714622F3
:100270005A719A799006FCD5344A9179334B4906E4
:10028000FBD5334A4FF08271116009215160202261
:100290001A709A7902F00C020C2AFAD12D4B2E4AD0
:1002A0001A602E4B2E4A1A6000225A60072243F829
:1002B000042C2C4AC3F80C2D62B604F0EBFC154B51
:1002C0001B68DA0705D5284804F056FC274B284A56
:1002D0001A60284B1B785B0609D5244C244B2268F6
:1002E0009A4204D1204804F047FC0023236007F021
:1002F00041FA04F021FB06F08BFEFEE70E200540DC
:1003000030800440823F04000100002B88ED00E0B3
:1003100010D0034014D0034002D0074000E0074053
:100320000C14FF1FC08C0000F806FF1F0C14FF1FE9
:10033000741FFF1F0002FF1F0000000000E400E028
:1003400056E400E008ED00E00050064000400640A2
:100350004480044004800440C010050014E000E024
:10036000BFD4010000002020F0B3C75A1CE00340B6
:10037000A5C3945A00F00740FFFFFFFFFFFFFFFFF8
:10038000FFFFFFFFFFFFFFFFFFFFFFFFFFFFFFFF7D
:10039000FFFFFFFFFFFFFFFFFFFFFFFFFFFFFFFF6D
:1003A000FFFFFFFFFFFFFFFFFFFFFFFFFFFFFFFF5D
:1003B000FFFFFFFFFFFFFFFFFFFFFFFFFFFFFFFF4D
:1003C000FFFFFFFFFFFFFFFFFFFFFFFFFFFFFFFF3D
:1003D000FFFFFFFFFFFFFFFFFFFFFFFFFFFFFFFF2D
:1003E000FFFFFFFFFFFFFFFFFFFFFFFFFFFFFFFF1D
:1003F000FFFFFFFFFFFFFFFFFFFFFFFFFFFFFFFF0D
:10040000FFFFFFFFFFFFFFFFFFFFFFFFDEF9FFFF23
:1004100010B5054C237833B9044B13B10448AFF33E
:1004200000800123237010BD0C14FF1F000000008A
:10043000C48C0000084B10B51BB108490848AFF345
:1004400000800848036803B910BD074B002BFBD0A0
:10045000BDE81040184700BF000000001014FF1F47
:10046000C48C00000C14FF1F00000000406970479E
:10047000002070474FF4C870704700BF4FF4C87039
:10048000704700BF10B501210446252004F08CFB05
:100490004FF48062014BA261E36110BD80F00F4018
:1004A00010B501210446242004F07EFB4FF40072B5
:1004B000014BA261E36110BD80F00F40F0B58BB03D
:1004C000002305688DF804308DF805308DF806306E
:1004D0002E68374A8DF8083096428DF809308DF82D
:1004E0000A305FD1827C04910446012A01A805915B
:1004F0008DF81E308DF81F308DF82030039015D008
:100500008DF81D308DF81C308DF81B308DF81A30A9
:100510008DF819308DF818300023AA698DF8213034
:100520002046099303A990470BB0F0BD214A1378E8
:10053000013303F0070313F0010F14BF80210021E2
:1005400013709A0744BF41F04001C9B25B0748BF2E
:1005500041F0200110310022C9B20DF11B030DF151
:100560001E074FF4807EAAB19EFBF2F2D2B2501C5D
:10057000C0B200FB01152D121870EEB205B1013E9C
:1005800003F8036C00B11A7001339F4208D0DA7887
:10059000002AE9D11A7003F8032C01339F42F6D1E7
:1005A0002568B9E70A4602AB01A9B0470BB0F0BD18
:1005B000290600002814FF1F10B50D211248134C06
:1005C00006F0F2F8124806F033FC124803F0BAFACB
:1005D0002378012123B11048BDE8104004F05ABE31
:1005E0000E4804F057FE04F0D7F80D4803F0AAFABD
:1005F0000C4803F0A7FA4FF42F710A4803F088FA69
:100600000123237010BD00BFB4870000BC16FF1F7C
:10061000140BFF1F1418FF1FC8870000C4870000B9
:10062000A417FF1F6C16FF1FF0B5857C1C785E7841
:100630009B7889B0012D0191029203928DF81640AA
:100640008DF817608DF8183016D000238DF815300E
:100650008DF814308DF813308DF812308DF811307C
:100660008DF810300268002392698DF819300793D5
:1006700001A9904709B0F0BD1B4A1378013303F07C
:10068000070313F0010F137014BF80220022990793
:1006900044BF42F04002D2B25B0748BF42F02002A2
:1006A0001032D2B20DF113030DF116074FF4807E14
:1006B000ACB19EFBF4F4E4B2611CC9B201FB0225AB
:1006C0002D121970EEB205B1013E03F8036C01B1B1
:1006D0001C700133BB42C5D0DC78002CE9D11C7002
:1006E00003F8034CF5E700BF2814FF1FF0B5857C25
:1006F0001C785E789B7889B0012D0191029203925B
:100700008DF816408DF817608DF8183017D000233B
:100710008DF815308DF814308DF813308DF81230B7
:100720008DF811308DF810300368002203219B6989
:100730008DF81910079201A9984709B0F0BD1B4A1E
:100740001378013303F0070313F0010F137014BF84
:1007500080220022990744BF42F04002D2B25B07D8
:1007600048BF42F020021032D2B20DF113030DF156
:1007700016074FF4807EACB19EFBF4F4E4B2611C2A
:10078000C9B201FB02252D121970EEB205B1013E6E
:1007900003F8036C01B11C700133BB42C4D0DC7898
:1007A000002CE9D11C7003F8034CF5E72814FF1F57
:1007B0002DE9F04F8BB004460990089104F0FAF946
:1007C000238CC01A83B2312BF8D9089C9E4AE07B57
:1007D00013680290207C657C01902046667BD4F8EB
:1007E000008094F80C9094F80EA00395A77CE57C0B
:1007F00094F814E0954994F91540049443F08073FB
:10080000D0F804B013600A689148924B42F001029C
:100810000A60002202601A681A68019822F40072C5
:100820001A6098F80140861B5FFA86FC002C40F0A5
:1008300058826B1C059372B6854B1968BBF1000F8B
:1008400001F1960140F3BC807A1C069281480EF1BA
:10085000010207921F46029AC9EB0209019ACCEBEA
:10086000020C039ACAEB020A5FFA89F95FFA8CFC60
:100870005FFA8AFA72B61A688A4206D91A6841F291
:10088000F865521AAA4200F2E7800568066845F446
:10089000007526F400764FF0070E1A688A42FCD3E2
:1008A00039680560220601F1960100F195801A6809
:1008B0008A1A822AFBD86400BEF1010E0660E4B2F7
:1008C000EBD11A689142FCD839680560240601F121
:1008D000960100F18B801A688A1A822AFBD806607A
:1008E00098F800403CB184FA59F4069AE4B204FB4B
:1008F00002F4C4F307244FF0070E1A689142FCD8A3
:1009000039680560220601F1960179D41A688A1ABD
:10091000822AFBD86400BEF1010E0660E4B2ECD17D
:100920001A689142FCD839680560240601F19601E5
:100930006FD41A688A1A822AFBD8066098F8024097
:100940003CB184FA5AF4079AE4B204FB02F4C4F30B
:1009500007244FF0070E1A688A42FCD339680560F5
:10096000220601F196015DD41A688A1A822AFBD800
:100970006400BEF1010E0660E4B2ECD11A68914247
:10098000FCD839680560240601F1960153D41A6831
:100990008A1A822AFBD8049A066090440BF1FF3B26
:1009A00098F801403CB184FA5CF4059AE4B202FB89
:1009B00004F4C4F3072462B6BBF1000F7FF44BAF1D
:1009C00062B6234B1B68002B47D004F0F3F8099B59
:1009D00018840BB0BDE8F08F1A688A1A372A7FF6A0
:1009E0006AAF1A688A1A372AF6D864E71A688A1A28
:1009F000372A7FF674AF1A688A1A372AF6D86EE754
:100A00001A688A1A372A85D91A688A1A372AF7D8AB
:100A100080E71A688A1A372A8FD91A688A1A372AF9
:100A2000F7D88AE71A688A1A372AA1D91A688A1A5F
:100A3000372AF7D89CE71A688A1A372AABD91A6876
:100A40008A1A372AF7D8A6E7FCED00E0001000E08C
:100A5000041000E080F00F4062B662B64FF4FA6313
:100A6000013BFDD172B6089FA54AF97B13687E7CD5
:100A700002913C46397C94F915E0089CA1487D7BA5
:100A8000019143F08073D7F8008097F80CA097F895
:100A90000E900396F97CBE7CCDF810E03F7DD4F833
:100AA00004B013600268984C984B42F00102026057
:100AB000002222601A681A6822F400721A60019BF0
:100AC00098F801405D1B5FFA85FC002C00F0138153
:100AD00084FA5CF4E3B24A1C02FB03F30592C3F30D
:100AE000072472B6884B1968BBF1000F01F196011B
:100AF00040F3BB80721C069284487A1C07921F4602
:100B0000029ACAEB020A019ACCEB020C039AC9EBD7
:100B100002095FFA8AFA5FFA8CFC5FFA89F972B609
:100B20001A688A4206D91A6841F2F865521AAA422E
:100B300000F2E4800668056846F4007625F4007546
:100B40004FF0070E1A688A42FCD339680660220605
:100B500001F1960100F18D801A688A1A822AFBD869
:100B60006400BEF1010E0560E4B2EBD11A68914257
:100B7000FCD839680660240601F1960100F18380F3
:100B80001A688A1A822AFBD8056098F800403CB19E
:100B900084FA5AF4069AE4B204FB02F4C4F307247C
:100BA0004FF0070E1A688A42FCD3396806602206A5
:100BB00001F1960171D41A688A1A822AFBD864005E
:100BC000BEF1010E0560E4B2ECD11A689142FCD886
:100BD00039680660240601F1960167D41A688A1AFA
:100BE000822AFBD8056098F802403CB184FA59F497
:100BF000079AE4B204FB02F4C4F307244FF0070E93
:100C00001A688A42FCD339680660220601F196010F
:100C100055D41A688A1A822AFBD86400BEF1010EE4
:100C20000560E4B2ECD11A689142FCD839680660DC
:100C3000220601F196014BD41A688A1A822AFBD83F
:100C4000049A056090440BF1FF3B98F801403CB1D9
:100C500084FA5CF4059AE4B202FB04F4C4F30724BA
:100C600062B6BBF1000F7FF44BAF62B6264B1B6838
:100C7000ABE61A688A1A372A7FF672AF1A688A1AA0
:100C8000372AF6D86CE71A688A1A372A7FF67CAFBB
:100C90001A688A1A372AF6D876E71A688A1A372A1B
:100CA0008DD91A688A1A372AF7D888E71A688A1AF3
:100CB000372A97D91A688A1A372AF7D892E71A6812
:100CC0008A1A372AA9D91A688A1A372AF7D8A4E7BC
:100CD0001A688A1A372AB3D91A688A1A372AF7D8AB
:100CE000AEE784FA5CF4E3B26A1C02FB03F30592FC
:100CF000C3F307249FE54B1C0593F2E662B664E656
:100D0000FCED00E0001000E0041000E080F00F4077
:100D10002DE9F04F8BB004460990089103F04AFF8B
:100D2000238CC01A83B2312BF8D9089C9E4AE07BF1
:100D300013680290207C657C01902046667BD4F885
:100D4000008094F80C9094F80EA00395A77CE57CA5
:100D500094F814E0954994F91540049443F0807395
:100D6000D0F804B013600A689148924B42F0010237
:100D70000A60002202601A681A68019822F48062F0
:100D80001A6098F80140861B5FFA86FC002C40F040
:100D900058826B1C059372B6854B1968BBF1000F26
:100DA00001F1960140F3BC807A1C069281480EF155
:100DB000010207921F46029AC9EB0209019ACCEB85
:100DC000020C039ACAEB020A5FFA89F95FFA8CFCFB
:100DD0005FFA8AFA72B61A688A4206D91A6841F22C
:100DE000F865521AAA4200F2E7800568066845F4E1
:100DF000806526F480664FF0070E1A688A42FCD39D
:100E000039680560220601F1960100F195801A68A3
:100E10008A1A822AFBD86400BEF1010E0660E4B291
:100E2000EBD11A689142FCD839680560240601F1BB
:100E3000960100F18B801A688A1A822AFBD8066014
:100E400098F800403CB184FA59F4069AE4B204FBE5
:100E500002F4C4F307244FF0070E1A689142FCD83D
:100E600039680560220601F1960179D41A688A1A58
:100E7000822AFBD86400BEF1010E0660E4B2ECD118
:100E80001A689142FCD839680560240601F1960180
:100E90006FD41A688A1A822AFBD8066098F8024032
:100EA0003CB184FA5AF4079AE4B204FB02F4C4F3A6
:100EB00007244FF0070E1A688A42FCD33968056090
:100EC000220601F196015DD41A688A1A822AFBD89B
:100ED0006400BEF1010E0660E4B2ECD11A689142E2
:100EE000FCD839680560240601F1960153D41A68CC
:100EF0008A1A822AFBD8049A066090440BF1FF3BC1
:100F000098F801403CB184FA5CF4059AE4B202FB23
:100F100004F4C4F3072462B6BBF1000F7FF44BAFB7
:100F200062B6234B1B68002B47D003F043FE099B9E
:100F300018840BB0BDE8F08F1A688A1A372A7FF63A
:100F40006AAF1A688A1A372AF6D864E71A688A1AC2
:100F5000372A7FF674AF1A688A1A372AF6D86EE7EE
:100F60001A688A1A372A85D91A688A1A372AF7D846
:100F700080E71A688A1A372A8FD91A688A1A372A94
:100F8000F7D88AE71A688A1A372AA1D91A688A1AFA
:100F9000372AF7D89CE71A688A1A372AABD91A6811
:100FA0008A1A372AF7D8A6E7FCED00E0001000E027
:100FB000041000E080F00F4062B662B64FF4FA63AE
:100FC000013BFDD172B6089FA54AF97B13687E7C70
:100FD00002913C46397C94F915E0089CA1487D7B40
:100FE000019143F08073D7F8008097F80CA097F830
:100FF0000E900396F97CBE7CCDF810E03F7DD4F8CE
:1010000004B013600268984C984B42F001020260F1
:10101000002222601A681A6822F480621A60019B1A
:1010200098F801405D1B5FFA85FC002C00F01381ED
:1010300084FA5CF4E3B24A1C02FB03F30592C3F3A7
:10104000072472B6884B1968BBF1000F01F19601B5
:1010500040F3BB80721C069284487A1C07921F469C
:10106000029ACAEB020A019ACCEB020C039AC9EB72
:1010700002095FFA8AFA5FFA8CFC5FFA89F972B6A4
:101080001A688A4206D91A6841F2F865521AAA42C9
:1010900000F2E4800668056846F4806625F4806501
:1010A0004FF0070E1A688A42FCD3396806602206A0
:1010B00001F1960100F18D801A688A1A822AFBD804
:1010C0006400BEF1010E0560E4B2EBD11A689142F2
:1010D000FCD839680660240601F1960100F183808E
:1010E0001A688A1A822AFBD8056098F800403CB139
:1010F00084FA5AF4069AE4B204FB02F4C4F3072417
:101100004FF0070E1A688A42FCD33968066022063F
:1011100001F1960171D41A688A1A822AFBD86400F8
:10112000BEF1010E0560E4B2ECD11A689142FCD820
:1011300039680660240601F1960167D41A688A1A94
:10114000822AFBD8056098F802403CB184FA59F431
:10115000079AE4B204FB02F4C4F307244FF0070E2D
:101160001A688A42FCD339680660220601F19601AA
:1011700055D41A688A1A822AFBD86400BEF1010E7F
:101180000560E4B2ECD11A689142FCD83968066077
:10119000220601F196014BD41A688A1A822AFBD8DA
:1011A000049A056090440BF1FF3B98F801403CB174
:1011B00084FA5CF4059AE4B202FB04F4C4F3072455
:1011C00062B6BBF1000F7FF44BAF62B6264B1B68D3
:1011D000ABE61A688A1A372A7FF672AF1A688A1A3B
:1011E000372AF6D86CE71A688A1A372A7FF67CAF56
:1011F0001A688A1A372AF6D876E71A688A1A372AB6
:101200008DD91A688A1A372AF7D888E71A688A1A8D
:10121000372A97D91A688A1A372AF7D892E71A68AC
:101220008A1A372AA9D91A688A1A372AF7D8A4E756
:101230001A688A1A372AB3D91A688A1A372AF7D845
:10124000AEE784FA5CF4E3B26A1C02FB03F3059296
:10125000C3F307249FE54B1C0593F2E662B664E6F0
:10126000FCED00E0001000E0041000E080F00F4012
:101270002DE9F047012184B00B2003F095FC0B20F1
:10128000002103F08BFC9148914A0368956813F0A4
:10129000010400F0C180294600233C228D4802F061
:1012A000BDFA8D488D4A0368956813F0010400F07B
:1012B000D68040220023294689488A4C02F0AEFAA3
:1012C000894802F08DFD0821874802F01BFD874BFD
:1012D0000121187803F068FC2078022103F064FCF7
:1012E000206883493F28D4BFC0B2FF20022203F008
:1012F000C7FB804B0121187803F056FC43F2D40061
:1013000004F0A4F97C4803F0FFF9642003F074FCB6
:101310001E2003F045FA794803F008F9002800F090
:10132000C880764803F00AF9002800F0BA8040F639
:10133000230003F095FD05217148724F724DDFF8CF
:101340000882DFF80892DFF808A2704E03F0A2FFCF
:101350006F4805F06DFD684603F0BEF99DE8030097
:10136000030EDA1F3B70C1F307232B70C0F3074352
:1013700088F80030C0F3072389F80030A0F130036B
:101380008AF80030634B31700B2A18609980624BE9
:10139000624994BF0022012268461A7005F098FD48
:1013A0009AF80010684605F005FE5D49684605F0AC
:1013B000F3FD99F80010684605F0FCFD58496846B1
:1013C00005F0EAFD98F80010684605F0F3FD554970
:1013D000684605F0E1FD3978684605F0EBFD5249B5
:1013E000684605F0D9FD3178684605F0E3FD4E49C1
:1013F000684605F0D1FD2978684605F0DBFD6946B1
:101400004A4805F0EFFC494805F012FD684605F032
:101410001FFD04B0BDE8F08703F0A6FA00283FF4F2
:101420003AAF43492B4B08685C60FF2201265C61A0
:101430009C609E741A735A739A73DA731A745A748E
:10144000002840D03B4A116801B18B6000243A4922
:101450001E481C841360196003F08CFA1BE703F02C
:1014600083FA00283FF425AF31491D4B08685C60C2
:10147000FF2201265C619C609E741A735A739A73F2
:10148000DA731A745A74E0B12A4A116801B18B6098
:1014900000242A4910481C841360196003F06AFA7A
:1014A00007E71321264805F07FF9204805F0C0FC26
:1014B0003DE70E21234805F077F91C4805F0B8FCFC
:1014C0002FE70B60E0E70B60BCE700BF5414FF1F81
:1014D0005C18FF1F5814FF1F2C14FF1F3019FF1F2B
:1014E0003014FF1FE807FF1FC415FF1FEC07FF1F85
:1014F000B9050000D407FF1F040BFF1FAC17FF1F27
:10150000F08700003C15FF1F2019FF1F3D15FF1F2E
:10151000F40AFF1F1816FF1FD01AFF1FF8870000DC
:10152000008800000488000008880000140BFF1FDA
:10153000E41AFF1FF41AFF1F748700009887000049
:10154000DC870000CC8700001C18FF1F7C1AFF1FDF
:10155000BD16FF1FF0B5404C404D23683B2B83B0B8
:1015600063DDAB68D5F80CE0DFF8FCC095F90070DE
:10157000002273458CF80020226050D007EB47070B
:10158000581CCE2610F8012C12FB06F2121200F89D
:10159000012C59789A7811FB06F112FB06F2091218
:1015A000121259709A703B449E453844EAD19CF817
:1015B0000030A3B323681D2B41DD3A2B48D095F9A9
:1015C0000020A968002AC3F13B033DDB03EB430382
:1015D0001944FF230A2201A88DF804208DF8053054
:1015E0008DF8063002F0DCF9A86800F15D0200F128
:1015F0005403C51E0638D97802F8031C197902F87D
:10160000021C597902F8011C9D4202F10302A3F168
:10161000030301D09842EED12368013323601048C0
:10162000017802F04DF903B0F0BDAB68D5F80CE0DD
:1016300095F90070DFF830C073459FD1B7E795F991
:101640000020A968002AC1DAA3EB83031944C0E78C
:10165000044A01211170B2E7E414FF1F5C18FF1F58
:10166000D41AFF1F6816FF1FD807FF1F2DE9F04F80
:10167000002583B0DFF89480DFF894B02E46AA46A8
:1016800001244FF00A09FF2719E0E2079BF9003017
:10169000DBF808101DD4002BB4BF8919491901A823
:1016A00001348DF804908DF805708DF8067002F005
:1016B00077F9412CA6F1030605F103051DD098F832
:1016C0000030002BE1D1E0079BF90030DBF8081077
:1016D000E1D4002BB4BF8919491901A801348DF850
:1016E00004908DF805708DF806A002F059F9412C90
:1016F000A6F1030605F10305E1D198F8003083F067
:10170000010388F8003003B0BDE8F08F1018FF1F08
:101710003019FF1F2DE9F04100240E4D82B0A04684
:101720000A27FF2695F90030A9688DF80470002B70
:10173000B4BF0919091B01A8033C8DF805608DF899
:10174000068002F02DF914F1C00FEBD102B0BDE814
:10175000F08100BF3019FF1F30B50F4D2C6883B0EA
:10176000E4B1012C00F0AE80022C00F03F81032C8C
:1017700000F01882042C00F0A982052C00F03A83B6
:10178000062C00F012840134062CCABF00232C6002
:101790002B6003B030BD00BF301AFF1FCA4B1A1DAB
:1017A00092E803001B6822468DE803002821C74801
:1017B00002F0D4FAC64B1A1D92E803001B682246B9
:1017C0008DE803002021C14802F0C8FAC14B1A1D60
:1017D00092E803001B6822468DE803001821BB48ED
:1017E00002F0BCFABC4B1A1D92E803001B682246AB
:1017F0008DE803001021B54802F0B0FAB74B1A1D6E
:1018000092E803001B6822468DE803000821AF48D8
:1018100002F0A4FAB24B1A1D92E803001B6822469C
:101820008DE803002146A94802F098FAAD4B1A1D35
:1018300092E803001B6822468DE803002821AA488D
:1018400002F08CFAA94B1A1D92E803001B6822468D
:101850008DE803002021A44802F080FAA44B1A1D51
:1018600092E803001B6822468DE8030018219E4879
:1018700002F074FA9F4B1A1D92E803001B6822467F
:101880008DE803001021984802F068FA9A4B1A1D5F
:1018900092E803001B6822468DE803000821924865
:1018A00002F05CFA954B1A1D92E803001B68224671
:1018B0008DE8030021468C4802F050FA2C68012C78
:1018C0007FF452AF8E4B1A1D92E803001B68002272
:1018D0008DE8030028217D4802F040FA894B1A1D4B
:1018E00092E803001B6800228DE80300202177485E
:1018F00002F034FA844B1A1D92E803001B680022A0
:101900008DE803001821714802F028FA7F4B1A1D58
:1019100092E803001B6800228DE8030010216B4849
:1019200002F01CFA7A4B1A1D92E803001B68002291
:101930008DE803000821654802F010FA754B1A1D66
:1019400092E8030000221B688DE8030011465F48FF
:1019500002F004FA704B1A1D92E803001B68002283
:101960008DE803002821604802F0F8F96B4B1A1D3E
:1019700092E803001B6800228DE8030020215A48EA
:1019800002F0ECF9664B1A1D92E803001B68002276
:101990008DE803001821544802F0E0F9614B1A1D4C
:1019A00092E803001B6800228DE8030010214E48D6
:1019B00002F0D4F95C4B1A1D92E803001B68002268
:1019C0008DE803000821484802F0C8F9574B1A1D5A
:1019D00092E8030000221B688DE80300114642488C
:1019E00002F0BCF92C68022C7FF4C1AE504B1A1DDA
:1019F00092E803001B6800228DE803002821334889
:101A000002F0ACF94B4B1A1D92E803001B68002250
:101A10008DE8030020212D4802F0A0F9464B1A1D45
:101A200092E803001B6800228DE803001821274874
:101A300002F094F9414B1A1D92E803001B68002242
:101A40008DE803001021214802F088F93C4B1A1D53
:101A500092E803001B6800228DE8030008211B4860
:101A600002F07CF9374B1A1D92E8030000221B6834
:101A70008DE803001146154802F070F9324B1A1D2B
:101A800092E803001B6800228DE803002821164815
:101A900002F064F92D4B1A1D92E803001B68002226
:101AA0008DE803002021104802F058F9284B1A1D38
:101AB00092E803001B6800228DE8030018210A4801
:101AC00002F04CF946E000BF5C17FF1FC415FF1F72
:101AD0006817FF1F7417FF1F8017FF1F8C17FF1F4A
:101AE0009817FF1FC817FF1FE814FF1FD417FF1F09
:101AF000E017FF1FEC17FF1FF817FF1F0418FF1F49
:101B0000C016FF1FCC16FF1FD816FF1FE416FF1FBD
:101B1000F016FF1FFC16FF1F0817FF1F1417FF1FEB
:101B20002017FF1F2C17FF1F3817FF1F4417FF1F19
:101B30002016FF1F2C16FF1F3816FF1F4416FF1F0D
:101B40005016FF1F5C16FF1F7416FF1F8016FF1F25
:101B50008C16FF1FCA4B1A1D92E803001B68002257
:101B60008DE803001021C74802F0F8F8C64B1A1D93
:101B700092E803001B6800228DE803000821C14899
:101B800002F0ECF8C14B1A1D92E8030000221B681A
:101B90008DE803001146BB4802F0E0F82C68032CE6
:101BA0007FF4E8ADBA4B1A1D92E803001B680022CF
:101BB0008DE803002821B74802F0D0F8B64B1A1D73
:101BC00092E803001B6800228DE803002021B14841
:101BD00002F0C4F8B14B1A1D92E803001B68002202
:101BE0008DE803001821AB4802F0B8F8AC4B1A1D81
:101BF00092E803001B6800228DE803001021A5482D
:101C000002F0ACF8A74B1A1D92E803001B680022F3
:101C10008DE8030008219F4802F0A0F8A24B1A1D8E
:101C200092E8030000221B688DE8030011469948E2
:101C300002F094F89D4B1A1D92E803001B680022E5
:101C40008DE8030028218F4802F088F8984B1A1D70
:101C500092E803001B6800228DE8030020218948D8
:101C600002F07CF8934B1A1D92E803001B680022D7
:101C70008DE803001821834802F070F88E4B1A1D7E
:101C800092E803001B6800228DE8030010217D48C4
:101C900002F064F8894B1A1D92E803001B680022C9
:101CA0008DE803000821774802F058F8844B1A1D8C
:101CB00092E8030000221B688DE80300114671487A
:101CC00002F04CF82C68042C7FF457AD7D4B1A1DA4
:101CD00092E803001B6800228DE8030028216D486C
:101CE00002F03CF8784B1A1D92E803001B680022B2
:101CF0008DE803002021674802F030F8734B1A1D6D
:101D000092E803001B6800228DE803001821614857
:101D100002F024F86E4B1A1D92E803001B680022A3
:101D20008DE8030010215B4802F018F8694B1A1D7A
:101D300092E803001B6800228DE803000821554843
:101D400002F00CF8644B1A1D92E8030000221B6895
:101D50008DE8030011464F4802F000F85F4B1A1D52
:101D600092E803001B6800228DE803002821454803
:101D700001F0F4FF5A4B1A1D92E803001B68002281
:101D80008DE8030020213F4801F0E8FF554B1A1D64
:101D900092E803001B6800228DE8030018213948EF
:101DA00001F0DCFF504B1A1D92E803001B68002273
:101DB0008DE803001021334801F0D0FF4B4B1A1D72
:101DC00092E803001B6800228DE8030008212D48DB
:101DD00001F0C4FF464B1A1D92E8030000221B6865
:101DE0008DE803001146274801F0B8FF2C68052C48
:101DF0007FF4C6AC3F4B1A1D92E803001B6800221B
:101E00008DE803002821234801F0A8FF3A4B1A1D52
:101E100092E803001B6800228DE8030020211D4882
:101E200001F09CFF354B1A1D92E803001B6800224D
:101E30008DE803001821174801F090FF304B1A1D60
:101E400092E803001B6800228DE80300102111486E
:101E500001F084FF2B4B1A1D92E803001B6800223F
:101E60008DE8030008210B4801F078FF264B1A1D6E
:101E700092E8030000221B688DE80300114645E04C
:101E80009816FF1FE814FF1FA416FF1FB016FF1FB0
:101E90007C15FF1FC415FF1F8815FF1F9415FF1F1A
:101EA000A015FF1FAC15FF1FB815FF1FD015FF1F92
:101EB000DC15FF1FE815FF1FF415FF1F0016FF1F9D
:101EC0000C16FF1FF414FF1F0015FF1F0C15FF1F3A
:101ED0001815FF1F2415FF1F3015FF1F5017FF1F78
:101EE0004015FF1F4C15FF1F5815FF1F6415FF1FDE
:101EF0007015FF1F801AFF1F8C1AFF1F981AFF1FF3
:101F0000A41AFF1FB01AFF1FBC1AFF1F704801F070
:101F100025FF704B1A1D92E803001B6800228DE814
:101F2000030028216C4801F019FF6C4B1A1D92E840
:101F300003001B6800228DE803002021664801F0A1
:101F40000DFF674B1A1D92E803001B6800228DE805
:101F500003001821604801F001FF624B1A1D92E84E
:101F600003001B6800228DE8030010215A4801F08D
:101F7000F5FE5D4B1A1D92E803001B6800228DE8F8
:101F800003000821544801F0E9FE584B1A1D92E85D
:101F9000030000221B688DE8030011464E4801F043
:101FA000DDFE2C68062C7FF4EEAB514B1A1D92E837
:101FB00003001B6800228DE803002821444801F03B
:101FC000CDFE4C4B1A1D92E803001B6800228DE8E1
:101FD000030020213E4801F0C1FE474B1A1D92E844
:101FE00003001B6800228DE803001821384801F027
:101FF000B5FE424B1A1D92E803001B6800228DE8D3
:1020000003001021324801F0A9FE3D4B1A1D92E851
:1020100003001B6800228DE8030008212C4801F012
:102020009DFE384B1A1D92E8030000221B688DE8C4
:1020300003001146264801F091FE334B1A1D92E829
:1020400003001B6800228DE803002821224801F0CC
:1020500085FE2E4B1A1D92E803001B6800228DE8B6
:10206000030020211C4801F079FE294B1A1D92E83B
:1020700003001B6800228DE803001821164801F0B8
:102080006DFE244B1A1D92E803001B6800228DE8A8
:1020900003001021104801F061FE1F4B1A1D92E849
:1020A00003001B6800228DE8030008210A4801F0A4
:1020B00055FE1A4B1A1D92E8030000221B688DE89A
:1020C00003001146044801F049FE2C68FFF75BBB92
:1020D000C415FF1F9C14FF1FE814FF1FA814FF1F47
:1020E000B414FF1FC014FF1FCC14FF1FD814FF1F10
:1020F0002419FF1F4418FF1F001AFF1F0C1AFF1F8F
:10210000181AFF1F241AFF1F341AFF1F401AFF1F3F
:102110004C1AFF1F581AFF1F641AFF1F701AFF1F67
:102120002DE9F04FDFF854B1504DDFF854A1DBF842
:102130000030DFF85091DFF850814D4F4D4E4E4C3E
:102140000BF1040292E8030083B08DE80300002243
:102150002846282101F002FE0AF1040393E8030057
:1021600000228DE80300DAF800302846202101F033
:10217000F5FD09F1040393E8030000228DE8030054
:10218000D9F800302846182101F0E8FD08F10403D1
:1021900093E8030000228DE80300D8F800302846B9
:1021A000102101F0DBFD3B1D93E8030000223B689A
:1021B0008DE803002846082101F0D0FD331D93E887
:1021C000030000228DE8030033682846114601F021
:1021D000C5FD0BF1040393E8030000228DE8030022
:1021E000DBF800302046282101F0B8FD0AF1040395
:1021F00093E8030000228DE80300DAF8003020465F
:10220000202101F0ABFD09F1040393E80300002253
:102210008DE80300D9F800302046182101F09EFD1A
:1022200008F1040393E8030000228DE80300D8F8C6
:1022300000302046102101F091FD3B1D93E8030082
:1022400000223B688DE803002046082101F086FD4E
:10225000331D93E8030000228DE803003368204615
:10226000114601F07BFD03B0BDE8F08FC415FF1FE0
:102270003818FF1F5018FF1FE814FF1F2018FF1FFA
:10228000B017FF1FBC17FF1F2C18FF1F2DE9F04FC1
:10229000DFF880A39AF8003087B0002B4FD00721D9
:1022A000C148DFF8748304F07FFAC04804F0C0FD31
:1022B000BF4801F02FFC012800F00A81BD4801F061
:1022C00029FC012804BFBC4B1870BC4801F022FC5B
:1022D000012800F00581BA4801F01CFC012800F03B
:1022E0005F81B84C2378002B40F0E480B64801F0C1
:1022F00011FC012800F00381B44DB54F2B78B54E89
:10230000DFF81893DFF818B3012B02AC43D1052195
:10231000B14804F049FAA54804F08AFD3B78052B42
:1023200000F0A882142B337857D1372B55D199F868
:102330000030002B54D0012388F8003050E00E21EB
:10234000A64804F031FA994804F072FD994801F06A
:10235000E1FB0128034600F0E680DFF8BC829C4FD9
:102360009C4EDFF8B892DFF8B8B2984D02AC9348B3
:1023700001F0D0FB012800F0FD81914801F0CAFB7B
:10238000012800F0E1818F4B1A78002A40F05E812D
:102390002B78012BBBD0022B00F06881032B00F0BF
:1023A0007881042B00F08881052B00F09881062BA2
:1023B00000F0E881072B00F0FB81082B00F007827A
:1023C000092B00F045820A2B00F059820B2B00F0FC
:1023D00023820C2B00F06A8233781E2B00F02281BE
:1023E00002F0DAFF00280FDD07217D4804F0DCF958
:1023F0006E4804F01DFD02F0DFFFC0B2502800F06F
:1024000088814F2800F0D0817649204604F060FD95
:10241000754B2046197804F0CDFD7449204604F030
:10242000BBFD2978204604F0C5FD7049204604F024
:10243000B3FD9BF80010204604F0BCFD6C4920461B
:1024400004F0AAFD3978204604F0B4FD694920461D
:1024500004F0A2FD3178204604F0ACFD6549204629
:1024600004F09AFD99F80010204604F0A3FD2146DF
:102470004E4804F0B7FC4D4804F0DAFC5E492046B3
:1024800004F048FD5D4A5E4B98F800102046002994
:102490000CBF1146194604F07FFD2146434804F065
:1024A000A1FC424804F0C4FC204604F0D1FC07B073
:1024B000BDE8F08F424801F045FB00232370FFF791
:1024C000D5F8414801F026FB01287FF415AF16E04E
:1024D00098F80030002B00F03381FFF73DF9EDE66E
:1024E0000190FFF737F898F800300198002B3FF47F
:1024F000F2AE444B0146187802F050FBEBE60023A5
:102500002C488AF8003001F01DFB4FF4FA6129488D
:102510002F4F304EDFF80491DFF804B12B4D01F05E
:10252000F7FA02AC34E7244A3748137011210193BB
:1025300002AC04F039F91D48254FDFF8E090DFF8D0
:10254000E0B0224DDFF8D080224E04F071FC20462E
:1025500002F0C2F894E80300020E3A70C1F30722B9
:1025600089F80020C0F307428BF80020C0F307224F
:102570002A70264A019B9180106098F800203170E3
:102580001946002A00F03B81214802F083FE019B9E
:102590001F48194604F008F9044804F049FCE6E62F
:1025A000FFF7B8F89DE600BF18880000140BFF1F66
:1025B000A417FF1F6C16FF1FD807FF1F8814FF1FEB
:1025C000C81AFF1F6816FF1F1418FF1F7C1AFF1F71
:1025D0003C15FF1F3D15FF1F4C88000020880000A0
:1025E000BC880000F8870000BD16FF1F00880000AF
:1025F0000488000008880000C488000014880000D7
:102600000C880000D407FF1F308800001816FF1F39
:1026100044880000BC16FF1FD01AFF1F2019FF1F9F
:102620001C18FF1F99F80030002B7FF4D9AE03214E
:10263000B44802F02FFE02F091FE0A2002F0DCFA0C
:10264000B14B0121187802F0A9FAC9E6AF4801930D
:1026500001F078FA019B98F8002000211970002AF7
:1026600050D0FFF75DFDFFF701F891E60721A8487C
:1026700004F09AF8A74804F0DBFB3B78052B00F048
:10268000B180142B33787FF4A8AE202B7FF4A5AE55
:102690004DE60521A04804F087F89E4804F0C8FBE9
:1026A0003B78062B00F0FD80132B33787FF495AE3A
:1026B000392B7FF492AE3AE60521984804F074F87D
:1026C000944804F0B5FB3B78062B00F00181132BF6
:1026D00033787FF482AE112B7FF47FAE27E604219E
:1026E0008F4804F061F88B4804F0A2FB3B78072B7D
:1026F00000F0F380122B33787FF46FAE312B7FF430
:102700006CAE14E6874801F06BFB874801F068FB6C
:10271000A9E7864801F016FA9AF80030002B7FF4FA
:1027200073AE834801F00EFA824801F00BFA4FF4C1
:102730002F71804801F0ECF97F4A0123137063E6A2
:10274000784801F04DFBB9E5014601907B4804F063
:102750002BF8704804F06CFB019B7848194602F096
:1027600099FDFEF7D7FF6F4801F03AFB6E4801F084
:1027700037FB08E6FEF7EEFE714B0021187802F0F9
:102780000DFAFAE505216F4804F00EF8614804F0EF
:102790004FFB3B78072B51D0122B33787FF41DAEC3
:1027A0002B2B7FF41AAEC2E5604801F0CBF92BE683
:1027B0000521654803F0F8FF564804F039FB3B78E3
:1027C000072B40D0122B33787FF407AEADE50621FE
:1027D0005E4803F0E9FF4F4804F02AFB3B78062BE4
:1027E0007FF475AF3378362B7FF4F7AD99F800306E
:1027F000002B3FF4F5AD002388F80030F0E5544895
:10280000019302F047FD019B5148194603F0CCFFAC
:10281000404804F00DFBAAE509214E4803F0C4FF2F
:102820003C4804F005FB3B78042BDBD0142B3378B9
:102830007FF4D3AD1B2B7FF4D0AD78E53378122B2A
:102840007FF4CBADD2E73378102B7FF4C6ADCDE764
:102850000A21414803F0A8FF2E4804F0E9FA3B782A
:10286000062B3FD0132B33787FF4B7AD252B7FF4A5
:10287000B4AD5CE533780E2B7FF4AFADB6E707213E
:10288000364803F091FF234804F0D2FA3B78052B39
:102890002DD0132B33787FF4A0AD3A2B7FF49DAD70
:1028A00045E53378162B7FF498AD9FE709212C4836
:1028B00003F07AFF174804F0BBFA3B78042B1BD0D7
:1028C000142B33787FF489AD332B7FF486AD2EE55E
:1028D00033782D2B7FF481AD88E73378042B7FF498
:1028E0007CAD83E733780F2B7FF477AD7EE73378C9
:1028F0001F2B7FF472AD79E733782E2B7FF46DAD0B
:1029000074E700BFB8880000EC07FF1FC81AFF1F5C
:1029100054880000140BFF1F5C88000064880000CE
:102920006C880000C415FF1FE814FF1F1418FF1F58
:10293000A417FF1F6C16FF1FBC16FF1F4088000066
:10294000D407FF1F748800007C8800008488000082
:1029500048880000A08800008C880000988800004B
:10296000AC8800002DE9F04F97B0002481210822A7
:102970007E202346059000900491039102910191DD
:1029800006941146B84801F0E7F841200825059063
:10299000222114227F2023460491039202952A4685
:1029A0002946019006940094B04801F0D5F8F7202C
:1029B0004FF0FF080490602023462A462946CDF8B0
:1029C0001880CDF814800390029401940094A848D4
:1029D00003264FF0070B01F0BFF80F232A462946C4
:1029E000029600930694059404940394CDF804B0E1
:1029F0006F23A04801F0B0F8FC200690E3204FF0D0
:102A0000180904903020CDF8148023462A46294620
:102A10000390CDF80890CDF804900094964801F00A
:102A20009BF8F0204FF0800A04903023C0200593DB
:102A3000CDF8008043462A4629460390CDF808A0E9
:102A4000CDF804A006948D4801F086F8E0200490AB
:102A50003F20CDF814A0CDF80C80019600962346B7
:102A60002A46294602900694854801F075F80F23FE
:102A700003933F2302937320C023049600932A46B6
:102A8000534629460190069405947E4801F064F867
:102A9000F02304936023CDF81880CDF814800393BD
:102AA0002A4623462946029401940094764801F070
:102AB00053F8012301962A46294602930694059469
:102AC00004940394CDF800B06F23704801F044F8EB
:102AD000F72305933023CDF818800493CDF80C909C
:102AE000CDF8089023462A46294601940094684868
:102AF00001F032F838200390F023FE20CDF810903A
:102B00000293CDF8008043462A4629460190069458
:102B10000594604801F020F8C0230693F023059344
:102B20007E2304930F23039302968DE850002346DF
:102B30002A462946584801F00FF80E2004901F201D
:102B400003901B200290F820CDF804902A462946D5
:102B5000009006940594F023504800F0FDFFF72301
:102B600005936023CDF8188004932A46234629460E
:102B70000394029401940094494800F0EDFF67200B
:102B8000019643462A4629460090069405940494EB
:102B900003940294434800F0DFFF1C2004900C20B3
:102BA000CDF81880CDF8148023462A462946039094
:102BB0000294019400943C4800F0CEFF0C23029351
:102BC000FC230193CDF8008043462A46294606940B
:102BD000059404940394354800F0BEFFC320CDF85B
:102BE0001880CDF81480039623462A46294604907F
:102BF0000294019400942E4800F0AEFF1E20CDF800
:102C000000902A4629460290019006940594049467
:102C10000394F823274800F09FFFF72305936023D0
:102C2000CDF8188004932A4623462946039402943B
:102C300001940094204800F08FFF672301960093D1
:102C40002A46434629460694059404940394029424
:102C50001A4800F081FF1D200123CDF81880CDF81F
:102C6000148003932CE000BF7C14FF1F9014FF1FFF
:102C70005C17FF1F6817FF1F7417FF1F8017FF1FC8
:102C80008C17FF1F9817FF1FC016FF1FCC16FF1FC2
:102C9000D816FF1FE416FF1FF016FF1FFC16FF1FBC
:102CA0002016FF1F2C16FF1F3816FF1F4416FF1F8C
:102CB0005016FF1F5C16FF1F7C15FF1F8815FF1F96
:102CC0002A46234629460490029401940094BA4867
:102CD00000F042FFFE22F0238DE80C002946434617
:102CE0002A4606940594049403940294B34800F091
:102CF00033FFE023FB2003930690C023EC20CDF8A4
:102D0000148002932A462346294604900194009495
:102D1000AB4800F021FF1F2300932A464346294673
:102D2000069405940494039402940194A54800F039
:102D300013FFF72305936023CDF8188004932A46E8
:102D40002346294603940294019400949E4800F07F
:102D500003FF6F20029643462A46294600900694B8
:102D6000059404940394CDF804B0984800F0F4FE60
:102D70000D20CDF81880CDF8148023462A46294628
:102D800004900394029401940094914800F0E4FEAE
:102D9000E0230393F0230293FE230193CDF80080F8
:102DA00043462A462946069405940494894800F02F
:102DB000D3FEEC2303930C230293F8230593FC2307
:102DC000CDF818A004932A4623462946019400947E
:102DD000814800F0C1FEFB2300930F2302930620DD
:102DE0001F2301932A4629460390069405940494D0
:102DF000F0237A4800F0B0FEF72304936023CDF867
:102E00001880CDF8148003932A462346294602945D
:102E100001940094724800F09FFE012303930F2356
:102E2000029600932A462946069405940494CDF808
:102E300004B06F236B4800F08FFEE12004901C2348
:102E400078200293CDF81880CDF814808DE83000FA
:102E500023462A4629460390634800F07DFE7823E6
:102E600005930493FE23CDF80CA0CDF808A00193A0
:102E7000CDF8008043462A46294606945B4800F078
:102E80006BFE062301930093C0230493FC2303935A
:102E90007E23CDF818A0CDF814A002932A4623462D
:102EA0002946534800F058FEF8201B210F238DE8D7
:102EB0000B0004962A46294606940594CDF80CB0DA
:102EC000F0234C4800F048FEF72304936023CDF82C
:102ED0001880CDF8148003932A462346294602948D
:102EE00001940094444800F037FE012303930F231C
:102EF000029600932A462946069405940494CDF838
:102F000004B06F233D4800F027FEE12304937020B6
:102F10003823CDF81880CDF8148002938DE8100284
:102F200023462A4629460390354800F015FE3823EB
:102F30000593F8230493C0230393CDF808A0CDF89C
:102F40000480CDF8008043462A46294606942D4841
:102F500000F002FEC02304937F23CDF814A0CDF827
:102F60000C8002930196009623462A462946069431
:102F7000254800F0F1FD1F2303933B20E023F027B9
:102F80008DE88800059623462A4629460290069435
:102F9000CDF810B01D4800F0DFFD6F2305930C2322
:102FA0000493CDF81880029623462A462946CDF888
:102FB0000CB0019400942BE09415FF1FA015FF1F87
:102FC000AC15FF1FB815FF1FF414FF1F0015FF1FDE
:102FD0000C15FF1F1815FF1F2415FF1F3015FF1FAD
:102FE000801AFF1F8C1AFF1F981AFF1FA41AFF1FB9
:102FF000B01AFF1FBC1AFF1F2419FF1F4418FF1F20
:10300000001AFF1F0C1AFF1F181AFF1F241AFF1F98
:10301000BB4800F0A1FD0C2302936F23019304969B
:10302000CDF8008043462A46294606940594CDF8FB
:103030000CB0B44800F090FDF823CDF81880CDF81E
:103040001480039302932A4623462946049401944C
:103050000094AD4800F080FDF82304930393CDF86D
:103060000480CDF800802A462946069405940294EF
:10307000FC23A64800F070FD0123CDF81880CDF8A0
:103080001480049603932A46234629460294019409
:1030900000949F4800F060FD012303930296CDF851
:1030A0000480CDF8008023462A46294606940594DC
:1030B0000494984800F050FD6F2306930F23059366
:1030C0000123039602932A4623462946CDF810B0E1
:1030D00001940094904800F03FFD60230293F72391
:1030E0000193CDF8008043462A462946069405946C
:1030F00004940394894800F02FFD4FF0F00C4FF03A
:10310000C00E30238DE80850CDF81880CDF814801B
:10311000CDF810A0CDF80CA023462A4629468048B9
:1031200000F01AFD30230293E323CDF81090CDF880
:103130000C900193CDF800802A4629460694059408
:10314000FC23784800F008FD732304933F23039386
:10315000E0230593C02306930F2302938DE85000CC
:1031600023462A462946704800F0F6FC3F23049384
:10317000E02306960596CDF80C8002938DE81004A6
:1031800023462A462946694800F0E6FC6F23069349
:103190000123049603932A4623462946CDF814B00A
:1031A000029401940094624800F0D6FC60230293DC
:1031B000F0230193CDF8008043462A462946069421
:1031C0000594049403945B4800F0C6FCFE2304932A
:1031D000F02303933C201C23CDF81880CDF81480F5
:1031E00001932A462346294602900094524800F053
:1031F000B3FCF72230238DE80C00CDF80C90CDF80D
:10320000089043462A4629460694059404944B4860
:1032100000F0A2FCF0230693F82305931B230393ED
:103220001F2302930E23CDF8109001932A462346C4
:1032300029460094424800F08FFCF0207E210F23A5
:103240008DE80B00049603962A46294606940594B9
:10325000C0233C4800F080FC6723CDF8188005931C
:10326000049623462A462946039402940194009426
:10327000354800F071FC6027F7238DE888002A4666
:1032800043462946069405940494039402942F48D7
:1032900000F062FCFC2304930C23CDF81880CDF8D9
:1032A000148003932A4623462946029401940094ED
:1032B000274800F051FC0C2302931C230193CDF806
:1032C000008043462A4629460694059404940394B4
:1032D000204800F041FCF82306931E23CDF81490FB
:1032E000049303932A4623462946029401940094AA
:1032F000194800F031FCC323019302962EE000BF71
:103300002018FF1FB017FF1FBC17FF1F2C18FF1F2F
:103310003818FF1F5018FF1FC817FF1FD417FF1FB3
:10332000E017FF1FEC17FF1FF817FF1F0418FF1F00
:103330000817FF1F1417FF1F2017FF1F2C17FF1F51
:103340003817FF1F4417FF1F7416FF1F8016FF1F3B
:103350008C16FF1F9816FF1FA416FF1FCDF80080C4
:1033600043462A4629460694059404940394B0489B
:1033700000F0F2FB672305930496CDF818802346EE
:103380002A4629460394029401940094A94800F027
:10339000E3FB4FF0600EF7238DE808402A464346D2
:1033A000294606940594049403940294A24800F0DC
:1033B000D3FBFE230593F0230493CDF81880234616
:1033C0002A462946039402940194009401259B48BF
:1033D00000F0C2FB2F4608221D210297CDF8008085
:1033E000434601910694114605940494039494482D
:1033F0000A9700F0B1FB1F2708224FF0E00E059757
:10340000CDF8188023461146CDF830E004944FF0F3
:10341000C00E03940294019400948A481297454682
:1034200077464FF0EC0800F097FB0C9903970822C1
:1034300002910095CDF8048011464FF06F0E06946E
:1034400005940494FB2380480B970996774600F077
:1034500083FB099B05970822039306952346114693
:103460004FF0F70ECDF810B0029401940094774815
:103470000D976026774600F06FFB08224FF0FE0E96
:10348000019600972B4611460694059404940394E4
:1034900002946F480E960F977646F02700F05CFB7B
:1034A0000C990496082203970291069505952346E8
:1034B0001146019400946748119600F04DFB0822D4
:1034C0000D2100952B4601914FF00F0E11460694E9
:1034D00005940494039402945F48764600F03CFB04
:1034E0004FF0060E1298CDF808E00822FB214FF0AD
:1034F000FC0E04900697039623460591CDF84CE008
:1035000011464FF0F80E01940094544810977746F6
:1035100000F022FB139BCDF8088008220C210391B8
:1035200001930097534611460694059404944C4821
:1035300000F012FB0D9B06930A9B02930822099B45
:103540000596039311462346CDF810B001940094DC
:10355000444800F001FB0E980F9B02900822019353
:1035600000952B46114606940594049403943E4816
:1035700000F0F2FA4FF078081198049008224FF00A
:103580001C0E0297CDF80CA0069505952346CDF8A4
:103590000480114600943548CDF854E01197CDF8D9
:1035A00050A0174600F0D8FA159A03924FF0E10E9A
:1035B000CDF804E0CDF8088000952B4604973A46F4
:1035C0003946069405942A4800F0C6FA4FF01B0AC3
:1035D00010981199099B06900591CDF810A00396BB
:1035E00001933A4623463946CDF808B00094214865
:1035F00000F0B2FA0B9A0192149A139800924FF0CD
:10360000060E4FF07E08CDF814E0CDF810E092469B
:10361000CDF80C800290134639463A460694164877
:1036200000F09AFA0D9B06930A9B029326E000BFD6
:10363000B016FF1FD015FF1FDC15FF1FE815FF1F79
:10364000F415FF1F0016FF1F0C16FF1F5017FF1F5A
:103650004015FF1F4C15FF1F5815FF1F6415FF1F56
:103660007015FF1F9C14FF1FA814FF1FB414FF1F29
:10367000C014FF1FCC14FF1FD814FF1F099B059611
:1036800003933A4623463946CDF810B0019400948E
:10369000524800F061FA0E9E0F9B0296019300952E
:1036A0002B463A46394606940594049403944C48B4
:1036B00000F052FA4FF038080B9A119E02920196D0
:1036C00006950595049523463A463946CDF800807F
:1036D000CDF80CA0434800F03FFA4FF0E10E702007
:1036E000CDF804E0CDF80C80CDF8109000952B4675
:1036F0003A4639460290069405943B4800F02CFA6D
:10370000109905911299099B03913B200C99069100
:1037100001933A46234639460490CDF808B0009408
:10372000324800F019FA5646099B0B9A01927F2005
:1037300005930493029523463A463946039006942E
:1037400000962B4800F008FA062200920423099AFA
:103750002848022100F068FB06223B4600921146F1
:1037600025485A4600F060FB6421244800F0CEF959
:10377000234A244BDDF8288082F8008002F1100CE7
:1037800002F1C40E03F1100903F1D0053C214027DA
:10379000516083F80080C2F808C0C2F80CE05F6096
:1037A000C3F80890DD604FF4FA61174800F0AEF9F5
:1037B0000A21164800F0AAF94FF49671144800F057
:1037C000A5F943F69821134800F0A0F912482146C4
:1037D00017B0BDE8F04F00F03FBE00BF341AFF1F26
:1037E000401AFF1F4C1AFF1F581AFF1F641AFF1FB1
:1037F000701AFF1FC415FF1FE814FF1FA417FF1F37
:103800005C18FF1F3019FF1F6C16FF1F8814FF1F65
:10381000C81AFF1F1418FF1F1816FF1FF8B51E1E29
:1038200003680446CCBF02EB420500250F469B68A7
:10383000D8BF164698477A19236862605B690A4ABE
:103840006661934201D12046F8BD20469847002882
:10385000F9D0064A064B516893FBF0F0884238BF16
:10386000084650602046F8BD71040000D41AFF1FBE
:1038700040420F0070B40F4C2268531C8A4283B040
:10388000236013DB0C4D0D4A2968019101992D68C5
:1038900000951668009D15604FF47A720025891B0B
:1038A00002FB03F32560B3FBF1F3438003B070BC6C
:1038B000704700BFE81AFF1F041BFF1FF01AFF1F0D
:1038C0002DE9F04F43682D4C83B006468946002B06
:1038D0004BD101F06FF9F36820601BB14846B16825
:1038E00098478146264B1C680025002C36D07388EB
:1038F000A77C61686269632B236898BFA574D3F8BD
:1039000004808DF804508DF805508DF80650B9F1FB
:10391000000F1CD004F10B030DF1040E04F10E0C8A
:1039200013F801BFBBF1000F0DD093F803A00AF10B
:1039300001000BFB0000BAF1000F04D009FB00F0FE
:10394000000C8EF8000063450EF1010EE8D1204610
:1039500001ABC047A774A468002CC8D13046192118
:10396000FFF788FF03B0BDE8F08F01F023F922686C
:103970007368801A9842AAD3ABE700BFEC1AFF1F06
:10398000E41AFF1F00207047044B0022FF204FF075
:10399000FF31187099605A80DA607047D41AFF1F9F
:1039A000F0B4047846788278E00000F0F80000EB8C
:1039B000800303EB031303442506C3F307235FD4FB
:1039C00004F0400505F0FF0704F02004002D46D167
:1039D00004F0FF00002C6CD05533DDB2AB243B4625
:1039E000FF2E1CD0002E79D01CB106FB0444C4F37A
:1039F00007241DB106FB0555C5F307251BB106FBC2
:103A00000333C3F30723F043C0B200FB0000C0F34D
:103A10000720044405440344E4B2EDB2DBB2FF2ABC
:103A200018D012FB02F0003218BF012202EB102264
:103A300012F0FF0256D01CB102FB0444C4F3072469
:103A40001DB102FB0555C5F307251BB102FB03336E
:103A5000C3F307230C704D708B70F0BC704704F0FB
:103A6000FF075CBB00EBC00400EB440000EBC000B0
:103A70000412563BC4F1AB04DDB2E4B23B46AFE7FF
:103A800004F0400707F0FF05E7B904F0200707F04E
:103A9000FF04002F36D100EBC00300EB430000EB26
:103AA000C000C0F30720C0F1AB055530EDB2C3B282
:103AB00096E7DC43E4B21D46034691E70024DD436C
:103AC000EDB28DE704F0200404F0FF0594B903F192
:103AD0005504E4B2C3F1AB03DBB281E7FF231D461B
:103AE0001C469CE71546144613460C704D708B70AF
:103AF000F0BC7047A3F15604E4B20025C3F15503AE
:103B0000DBB26DE7D8431C46C3B269E7416070473A
:103B1000416070470A4B42681B6882B00193019B69
:103B20004AB101685B1A9A429BBF5218026000209A
:103B3000012002B070470360012002B0704700BF4F
:103B4000041BFF1F034B82B01B680193019B0360A2
:103B500002B07047041BFF1F08B42DE9F04F08297D
:103B600004460B4628BF0823082A104682B028BF07
:103B700008200D4623706070012193469DF82C604B
:103B800003F0BAFDA060A8B30CAB0BF1FF3B0193AF
:103B90000DF12C0A4FF0000E05F1FF394FF001082E
:103BA00005B35FFA8EF00023A168DAB2A9B12778D5
:103BB000974212D9C3EB0902677846FA02F202F083
:103BC0000102874208FA03FC02FA03F205D90F5CEE
:103BD00027EA0C0C42EA0C020A540133AB4201D032
:103BE000082BE1D1DE4505D05AF8046F0EF1010E25
:103BF000F6B2D5E7204602B0BDE8F04F01B07047FD
:103C0000007870474078704783688BB110B40478AF
:103C10008C4209D94078904206D99B5C5DF8044BF0
:103C20000B4103F00100704700205DF8044B704722
:103C300018467047F8B505460E46072401270021AF
:103C4000687800F0ABFF07FA04F116EA0103287860
:103C50004FF0010108BF194600F0A0FF013C01210F
:103C6000687800F09BFF631CE9D1F8BD2DE9F041B5
:103C700005460F468078002100F090FF2B7AABB10B
:103C8000C7F10806F6B200244FF00808314628466E
:103C9000FFF7D0FF18FB04736A682846D15CFFF772
:103CA000C9FF01342B7AE4B2A342EFD8A8780121EE
:103CB00000F074FFA8780021BDE8F04100F06EBF6D
:103CC000F8B505460E4680780021174600F066FFDD
:103CD0002B7A002463B131462846FFF7ABFF394603
:103CE0002846FFF7A7FF01342B7AE4B2A342F2D8AB
:103CF000A878012100F052FFA8780021BDE8F84023
:103D000000F04CBF01F00F020A21FFF7D9BF00BF3E
:103D100030B44468ACB1407A884212D9072A10D82E
:103D200001F0F80011F007010DD00139C9B20125E9
:103D300005FA01F149B2024453B9A35C23EA010137
:103D4000A15430BC70476FF07F010244002BF4D0C7
:103D5000A35C1943A15430BC704700BF82B02DE969
:103D6000F84F0AAE814646F8043F30468A46174669
:103D7000FFF748FF4FF0000B5FFA8BF8804526D223
:103D8000002508E0FFF740FF3A4603462146484633
:103D90000135FFF7BDFF3046FFF732FFECB2234697
:103DA00083425444E4B2424619463046EAD3D9F835
:103DB00004300BB1072F0ED93046FFF723FF0BF16C
:103DC000010B5FFA8BF801378045FFB2D8D3BDE80D
:103DD000F84F02B0704739464846FFF747FFEBE718
:103DE000426802B370B50024017A2646082549B11D
:103DF000002315FB034101335654017A4268DBB2BC
:103E00009942F6D80134082CF1D10446002500E08F
:103E10006268294620460AB1FFF728FF0135EDB256
:103E2000082DF5D170BD704738B5044683704270D7
:103E30000170104601219DF8105000F0B5FE207869
:103E4000012100F0B1FEA078012100F0ADFE257245
:103E50004021284603F050FCED006060657220466A
:103E6000FFF7BEFF204607220B21FFF729FF204660
:103E70000F220A21FFF724FF204601220C21FFF721
:103E80001FFF204600220921FFF71AFF20460022CB
:103E90000F21FFF715FF204638BD00BF00207047F7
:103EA00090F8392090F83800101A704790F83830A0
:103EB00090F839209A4205D95A1C034480F83820DA
:103EC000187E70474FF0FF30704700BF90F83830D1
:103ED00090F839209A4286BF1B18187E4FF0FF30A9
:103EE000704700BF704700BF38B50546B0F85E00A8
:103EF00090B195F85D301446C3F1210294420CD87C
:103F000005F13B001844224600F04EFC95F85D3068
:103F1000234485F85D30204638BD012014462871C1
:103F2000EEE700BFB0F85E306BB190F85D30202B4B
:103F300007D8C218013380F85D30012082F83B10A9
:103F40007047012303710020704700BF00234269BE
:103F500080F8383080F8393080F85C3080F85D3097
:103F600080F85E3080F85F3006CA30B40D680469AE
:103F700043662A4383660A60A370426990F8613001
:103F80001649146813441D7A5B7B01EBC5051B02BF
:103F90006D6803F4E06343F064032B6090F86230D3
:103FA00013449D7CDB7D01EBC5011B02496803F4D2
:103FB000E06343F064030B6021685368194205D045
:103FC00003692C225A70036904229A710369202222
:103FD0005A71036980229A7030BC70476089000072
:103FE00038B50269D478E4B2E106054624D5102339
:103FF000D37063061FD504F0040404F0FF03002C03
:104000005AD042496A6E00230B7085F85D30002A51
:1040100066D0904795F85D30002B61D02B69D02297
:104020009A702B6995F83B201A712B69012285F84B
:104030005C200222DA7038BD04F0400303F0FF0078
:10404000002BD8D19379DBB203F0600160294ED008
:10405000937803F0100303F0FF01B3B114F00104EF
:1040600037D195F85C3095F85D1099424BD9591CC1
:104070002B4485F85C1093F83B3013712B69D022E8
:104080009A702B690222DA70D5E785F8601093796F
:1040900043F0200393712B6995F839101A791F2981
:1040A000D2B2C6D8194800780028C2D068180131A9
:1040B00085F839100276BCE72A6985F83930C023C3
:1040C00093702B69114A1979012111700222DA705B
:1040D000B1E7C02393702B691A790222DA70AAE73C
:1040E0000122002385F85D2085F83B3096E703F038
:1040F000DF039371AB6E23B185F8380095F8390072
:1041000098472A69A4E71471B8E700BFF81AFF1F9F
:10411000F0B503691222DA700269937805469806B1
:1041200087B051D5B423464C937023680293029E06
:104130002A6905E023680393039B9B1B042B5AD831
:10414000D37803F0200303F0FF00002BF2D095F8A2
:104150005D30002B31D04FF0000E4FF0020C05EB1C
:104160000E0393F83B30137123680493049F28696E
:1041700007E09B060DD523680593059BDB1B052BEC
:1041800040D8C378DBB203F0020202F0FF06002A37
:10419000EFD080F803C02E69F378DBB2DF06324639
:1041A0003FD49F063DD5DB0743D40EF1010E95F8B1
:1041B0005D305FFA8EFE7345D1D80020002934D1DE
:1041C000002385F85E301BE01D4C23680093009EA1
:1041D00005E023680193019B9B1B0F2B19D8D37813
:1041E00003F0200303F0FF00002BF2D1B02385F889
:1041F0005F00937099E790702B6980229A70042079
:1042000007B0F0BD86702B69802204209A7007B039
:10421000F0BD002393702B69802204209A7007B0B0
:10422000F0BD8023B3700420C8E72E698023B370EB
:10423000C6E7BEF1000F0CBF02200320F6E700BF67
:10424000041BFF1F2DE9F0410646122534690020AA
:1042500086F8380086F83900E5703769BC7804F0D4
:1042600020048AB0002C3CD0B420714DB87028686E
:104270000290DDF808E0376906E02C680394039C9F
:10428000CEEB0404042C47D8FC7804F0200404F09E
:10429000FF00002CF1D0490041F00101C9B2397191
:1042A00029680491049F346905E0296805910599FE
:1042B000C91B05293FD8E17801F0020101F0FF0098
:1042C0000029F2D00227E7703169C87810F0110098
:1042D00038D1002A3AD1002B0CBFA02380238B7049
:1042E0001EE0534D04F0FF002C680094DDF800C080
:1042F00006E02C680194019CCCEB04040F2C12D82E
:10430000FC7804F0200404F0FF0E002CF1D1B02062
:1043100086F85FE0B870AAE7B870336980229A70B7
:104320000AB0BDE8F0810023BB70336980229A7027
:104330000AB0BDE8F081A070336980229A700AB09B
:10434000BDE8F08180238B700020E9E7012A58D076
:10435000A0248C703469217986464FF0A80C296816
:104360000691069805E0296807910799091A052919
:104370004DD8E17801F0020101F0FF080029F2D0E8
:10438000013AD2B2E770012A04BF316981F802C054
:10439000BEF11F0F346943D806EB0E012079087671
:1043A0000EF1010E5FFA8EFE2146012AD7D12A684E
:1043B0000892089C05E02A680992099A121B052AAE
:1043C00031D8CA7802F0020202F0FF00002AF2D0CF
:1043D0000222CA703269B021BEF11F0F917024D839
:1043E000316906EB0E02097911760EF1010E5FFAC2
:1043F0008EFE13B1336980229A7086F839E07046D8
:104400008EE7A8228A70316986460A79CFE784F858
:104410000280336980229A70704686F839E07FE71F
:1044200021792146C1E78870F3E732691279E0E724
:10443000041BFF1F0148FFF7D3BD00BF5C08FF1F2F
:104440000148FFF7CDBD00BFC808FF1F0148FFF7B7
:10445000C7BD00BFF007FF1FF0B42E4C2E4B2F4AF4
:104460002F4D304E0C44A3FB0471A2FB047249098A
:10447000D20AA5FB0275A3FB0173A6FB04765B09B8
:104480002D09360CC3EB031305EB4505C1EB0117F2
:10449000A1EB8303A2EBC505A4EB87040022B6F5CC
:1044A000B77F03714471C570B3B202702FD301217D
:1044B0000A4600E02146C2F57E42933211F0030520
:1044C00013440CBF012200229BB202F5B6764C1CAD
:1044D0009E42E4B2EEDB01700121134F41701F22B6
:1044E00003E0417016F8012CA3B24C1C1DB902293F
:1044F00004BF0132D2B292B2E1B2934207EB01069D
:10450000A3EB0204EDD201338370F0BC7047154673
:10451000E2E700BF80BC92C789888888C5B3A291B2
:10452000ABAAAAAA07452EC25489000008B50248C2
:10453000FFF70CFD012008BD5C08FF1F38B5134CC8
:104540000125D0230021204684F83B3084F85E50BA
:1045500084F85D50FFF7E6FC29462046FFF7D8FDBA
:104560002B462A4620466821FFF76CFE94F8383027
:1045700094F839209A4207D9E2182B44107E84F827
:104580003830C011684038BD002038BD5C08FF1FBE
:10459000F8B5504DD023012600210446284685F861
:1045A0003B3085F85E6085F85D60FFF7BBFC314607
:1045B0002846FFF7ADFD0722334628466821FFF75E
:1045C00041FE95F8382095F83970BA426CD2A91896
:1045D0009319087E00F07F000111DBB2A1EB81018D
:1045E00000EB41019F42C9B285F8383063D9E81821
:1045F000931C067E3011DBB2A0EB800006EB40007E
:10460000BB42C0B285F838305FD2EE18D31C96F8A2
:1046100018E04FEA2E16DBB2A6EB86060EEB460636
:10462000BB42F6B285F8383041D202F1040E5FFA8F
:104630008EFEBE4585F838E039D2AE44531DDBB25C
:104640009EF8182085F83830C2F3031EAEEB8E0EAC
:1046500002EB4E0EBB425FFA8EFE33D2EA180133F4
:10466000127E4FEA221CACEB8C0CDBB202EB4C0C42
:1046700085F838305FFA8CFC9F4221D9EA18013363
:10468000127E85F838301311A3EB830302EB43034A
:1046900003F0FF032071237084F801C084F802E066
:1046A000E67061712046F8BDA52006465521A52378
:1046B0009E469C46EEE7A52006464FF0FF32C3E734
:1046C000A523E7E7A5239C46E4E74FF0A50C664643
:1046D000E646D1E75C08FF1F10B50446FFF758FF18
:1046E000204610BD70B5064C064E04F10A05306830
:1046F00014F8011B03681B689847AC42F7D170BDE2
:10470000DC07FF1FFC1AFF1F0249034B034A086026
:104710001A607047FC1AFF1F001BFF1FE5460000D0
:104720000C4B0A1210B45A71D8701C4699711A4673
:10473000981D002312F8011F0B4490429BB2F9D13F
:104740005B429BB22372044A1B12E3715DF8044B77
:1047500013681847DC07FF1F001BFF1F0C490023CD
:1047600010B40A46C8700C46881D4B718B7112F844
:10477000011F0B4490429BB2F9D15B429BB2237262
:10478000044A1B12E3715DF8044B1368184700BF1D
:10479000DC07FF1F001BFF1F0120FFF7DFBF00BF6B
:1047A00001460620FFF7BCBF844641EA000313F030
:1047B00003036DD1403A41D351F8043B40F8043B28
:1047C00051F8043B40F8043B51F8043B40F8043BEB
:1047D00051F8043B40F8043B51F8043B40F8043BDB
:1047E00051F8043B40F8043B51F8043B40F8043BCB
:1047F00051F8043B40F8043B51F8043B40F8043BBB
:1048000051F8043B40F8043B51F8043B40F8043BAA
:1048100051F8043B40F8043B51F8043B40F8043B9A
:1048200051F8043B40F8043B51F8043B40F8043B8A
:1048300051F8043B40F8043B403ABDD2303211D32A
:1048400051F8043B40F8043B51F8043B40F8043B6A
:1048500051F8043B40F8043B51F8043B40F8043B5A
:10486000103AEDD20C3205D351F8043B40F8043B2A
:10487000043AF9D2043208D0D2071CBF11F8013B28
:1048800000F8013B01D30B8803806046704700BFEE
:10489000082A13D38B078DD010F003038AD0C3F1FD
:1048A0000403D21ADB071CBF11F8013B00F8013BDF
:1048B00080D331F8023B20F8023B7BE7043AD9D39E
:1048C000013A11F8013B00F8013BF9D20B78037073
:1048D0004B7843708B7883706046704708B5104CF6
:1048E00008E0236859050DD423681A050FD42368FE
:1048F000DB0411D423685803F3D501F019FA2368B7
:104900005905F1D500F0CAFD23681A05EFD502F06C
:10491000B7FC2368DB04EDD502F048FDEAE700BFF1
:104920003480044008B5FFF7D9FF00BF014B1022C7
:104930001A80704700200540704700BF094908B53C
:104940000B6830B16A461844A2F50052904202D278
:104950000860184608BD02F007FF0C2303604FF003
:10496000FF3008BD3409FF1F0078B0FA80F040091D
:10497000704700BF01230370704700BFEFF313803F
:1049800070B9EFF310836BB9EFF305825AB94FF4A6
:104990008070EFF311832BB1984228BF18467047FF
:1049A0004FF0FF3070470F2A01D81846F1E7014B4E
:1049B000D05CEEE7F0E300E0704700BF10B4114BAD
:1049C00053F8302092F8804234B1012379B182F853
:1049D00080305DF8044B704703EBC0035B681A68D6
:1049E00051B922F002021A605DF8044B704782F858
:1049F00000315DF8044B704742F003021A605DF825
:104A0000044B7047608900001C4A02EBC003012977
:104A10005B6811D004291BD052F83000002280F8C6
:104A2000802229B1022920D0032922D01A607047A0
:104A30004FF480721A60704752F830004FF4A2723F
:104A400080F880121A601A6822F020021A607047FB
:104A500052F830104FF4A272012081F880021A60DF
:104A60001A6842F020021A60704740F203121A607E
:104A700070474FF481721A60704700BF6089000070
:104A80003F2817D8F8B5042A13D8DFE802F0494CBC
:104A90004F1446002C4872B6236823F4702343F069
:104AA0008072C4F384011643236040F821502660CD
:104AB00062B6F8BD70474FF41026244B03EBC003D9
:104AC0000D465C68216811F4E06134D0204B214A26
:104AD0002149C3F82C2104F140422048C3F8341185
:104AE000A2F592211E4FC3F830017C291D48C3F85E
:104AF0003871C3F83C01CDD9A2F594237C2B18D989
:104B0000A2F596237C2B19D9A2F598237C2B17D9D3
:104B1000A2F59A227C2A15D9F8BD4FF43026CCE7AD
:104B20004FF40026C9E74FF44026C6E74FF420268D
:104B3000C3E70D48AFE7FFF767FFC7E70B48AAE7F2
:104B40000B48A8E70B48A6E73809FF1F608900005B
:104B50000002FF1FA907FF1F5107FF1F7D07FF1F4F
:104B60002507FF1FF906FF1FB009FF1F100AFF1FCF
:104B7000400AFF1F800AFF1F30B4054B054D064C4D
:104B8000002210211A602A602060196030BC704732
:104B900014D0034004D0034000D003403F2801D884
:104BA000FFF70CBF704700BF3F2801D8FFF72CBFAD
:104BB000704700BF72B60C490C4B0D4A1B68086861
:104BC000126862B6520102D5322B88BF0130094902
:104BD000C3F5EA334FF47A72BF33A1FB031302FB30
:104BE00000F000EB93107047041BFF1F18E000E07B
:104BF00004ED00E0898888882DE9F843054672B6FF
:104C0000204F214B214A1B683C68126862B6520152
:104C100002D5322B88BF013495B3C3F5EA331C4E5D
:104C2000DFF86490DFF86480BF334FF47A72A6FB3C
:104C3000031302FB04F404EB931472B6D9F80010CA
:104C40003A68D8F800E062B6C1F5EA33BF33A6FB94
:104C500003031EF0806FC4EB93134FF47A7002D0FD
:104C6000322988BF013200FB0233B3F57A7F04D3C7
:104C7000013D05D004F57A74DFE702F0E7F9DCE7DF
:104C8000BDE8F883041BFF1F18E000E004ED00E01E
:104C900089888888F8B53E4B3E49DFF818C13E4EFA
:104CA0003E4ADFF814E13E4D3E4C3F4F4FF000606E
:104CB00018604FF0805018604FF0005018604FF0AF
:104CC000804018604FF000401860002008602823E2
:104CD0004EF6FF71CCF80010CEF8003033600EF5C0
:104CE000012E13602B60236005F500253B6004F561
:104CF0000024B36207F50027936206F5012602F54A
:104D000001220EF1100E05F6E87504F6E87407F5B9
:104D10007F67103220362B602360CEF800303B6076
:104D200013603360214EBB61936109223260A7F5A5
:104D3000002706F58056203F083638603160BB609A
:104D4000F36047F8042C06F5FD2607F5FE2706F26A
:104D5000FC76043730603960B360FB6046F8042CA1
:104D60000836C7F8FC0F06F6FC76114831602B6058
:104D70002360026002F0CCF93220FFF73DFF01F022
:104D800003FC4FF4AF70BDE8F840FFF735BF00BF3C
:104D900004E100E004800340148003401C800340D1
:104DA000248003402C800340348003400080034073
:104DB00000900B40088003400C8003402DE9F84F21
:104DC000214B1B6807460BB101221A70DFF888904F
:104DD0001E4D99F80040DFF884801D4E01343F2CB1
:104DE0008ABF4FF0000A5FFA84FA5446AB462B782C
:104DF000A34216D1FFF7C2FD40281FDC33791B0602
:104E0000F5D59BF8003001333F2B86BF00221346B7
:104E1000DAB218F80330DBB2F3712A702B78A342B0
:104E2000E8D00C490A4BFFB208F804700120BC22FC
:104E3000087089F800A0DA70BDE8F88FFF28D6DD89
:104E400002F004F9D3E700BF981BFF1F951BFF1F5B
:104E500000A00640941BFF1F9C1BFF1F101BFF1F81
:104E60002E4A2F491368F0B543F4806313600A7823
:104E70002C4F2D4E2D4D2E4C2E490023152A3B70C4
:104E800033702B7023700B7043D01B2A3CD04AB375
:104E9000294B1B78052B2DD01A2B30D0012B1CD081
:104EA000264B274C2749C0F34436C0F347151E70E4
:104EB00000F01F005D7004224FF0020E88273C2690
:104EC000402598729A704FF0004083F813E05A75AD
:104ED0001F74DE7025700860F0BD1B4B4FF45172DB
:104EE0001A60DDE7194B40F213321A60124B1B783F
:104EF000052BD1D1164B4FF451721A60D0E7154BE8
:104F00004FF451721A60CBE7134B40F213321A6020
:104F1000BEE7124B40F213321A60B9E73480044006
:104F2000501BFF1F0C1BFF1F0D1BFF1F9C1BFF1F98
:104F3000951BFF1F941BFF1FEC0AFF1F00A00640DC
:104F40001FE400E000E100E044A0044040A0044071
:104F50001CC00440389004403C90044018C00440F9
:104F6000194B19499B7803F0EC0200F0030313433B
:104F7000420700F00F0248BF43F01003042A8B7071
:104F80001CD0114B104A5B79C10603F0EF0348BFF8
:104F900043F0100353719379820603F0EF030A4A3A
:104FA00048BF43F010039371C30506D553781178B9
:104FB000DBB241F020011170537070478B7943F0E0
:104FC00040038B71DDE700BF00A00640284B1B6843
:104FD0005B0533D510B5274C237823B102F036F8A2
:104FE0002378002BFAD12448244A254B4FF0004463
:104FF00000210460D1701B78152B20D01B2B32D0E0
:105000001BB9204B40F203121A601F4B1B7803F0B0
:105010007F03052B1DD01A2B20D0012B03D11B4B56
:1050200040F203121A601A4B1A481B491A680023EF
:1050300003700B700AB10123137010BD7047174B3A
:1050400040F203121A60104B1B7803F07F03052B0C
:10505000E1D1134B40F203121A60E4E7114B40F226
:1050600003121A60DFE7104B40F203121A60CCE71C
:1050700034800440941BFF1F80E100E000A0064044
:10508000501BFF1F40A00440EC0AFF1F44A0044037
:10509000081BFF1F0C1BFF1F0D1BFF1F18C0044028
:1050A0001CC00440389004403C9004400A4A38B583
:1050B0000546137803F0FF04002BFAD1012128469E
:1050C000FFF772FD21462846FFF768FD034A044BAF
:1050D00052F835201A6038BD941BFF1F608900000C
:1050E000981BFF1F09B140F080001E4A13789842B8
:1050F0001BD010B41C4C2468640513D503F07F0347
:10510000052B2AD01A2B24D0012B14D0002900F013
:105110007F0114BF60234423052915D01A290ED01E
:10512000012903D010705DF8044B70470F4943F418
:1051300040730B60F6E70D4B00241C60E6E70C495A
:1051400043F440730B60EDE70A4943F440730B608E
:10515000E8E7074B00241C60D8E7064B00241C60DE
:10516000D4E700BFEC0AFF1F3480044044A0044091
:10517000389004401CC00440174A137883420ED074
:1051800016490968490509D5152B20D01B2B1AD0C3
:105190005BB115280DD01B2810D008B110707047D6
:1051A0000F4B40F213311960F8E70D4915280B60D9
:1051B000F1D10C4B40F213311960EFE70A4B40F28A
:1051C00013311960EAE7084B00211960E1E7054B4C
:1051D00000211960DDE700BF501BFF1F3480044031
:1051E00040A0044018C004403C9004400D4B1B6894
:1051F00013F4806305D03F2805D90B4B00201860BD
:10520000704718467047094B10B5074C53F83030BB
:1052100023600121FFF7C8FC236800221A700120D7
:1052200010BD00BF34800440081BFF1F60890000D0
:105230000F4B1B6813F4806308D0122808D0142881
:1052400011D00C4A537B03F0FE03537300207047C8
:10525000094B40F202321A60064A537B43F00103C5
:10526000537301207047054B40F202321A60F3E796
:105270003480044000A006400CA0044014C0044048
:10528000034B1B685B0501D5FFF798BD704700BF56
:10529000348004402DE9F84F294B1B685A0548D546
:1052A000284B1B6805460BB101221A7005EB010A59
:1052B000554540D2DFF89C80234CDFF89C90234F6B
:1052C0000AE015F8012B09F80B20214A0123AA4511
:1052D000137088F800602ED098F80030227803F11F
:1052E000010BBBF13F0F86BF0026B3465FFA8BF67A
:1052F0009345E6D1BC22FA7005E03A7913060BD447
:1053000022789345DDD1FFF739FB4028F5DDFF28F2
:10531000F6DD01F09BFEF3E7227801323F2A86BFDB
:1053200000210A46D1B219F80220D2B2FA712170D6
:10533000E6E7BDE8F88F054BBC22DA70BDE8F88FD0
:1053400034800440981BFF1F951BFF1F00A00640E0
:10535000941BFF1F9C1BFF1F101BFF1F10B5044C4D
:10536000237823B101F072FE2378002BFAD110BD0F
:10537000941BFF1F064A074B1B781078DBB2C0B2A4
:1053800083422CBF3F3000F1FF30C01A704700BF8E
:10539000951BFF1F9C1BFF1F054A064B10781B78AF
:1053A000C0B2DBB2984238BF4030C01A704700BF6D
:1053B0000C1BFF1F0D1BFF1F30B4154B154C1A782B
:1053C0002378D2B2DBB29A421ED001333F2B0ED9E2
:1053D0001149124B087819680023C0B2237021B11B
:1053E000D31A1A2B01DC00230B7030BC70470A481B
:1053F0000A49C05C0968DDB2C0B225700029F4D04A
:105400009A4238BF4032EBE74FF0FF30EDE700BF84
:105410000C1BFF1F0D1BFF1F541BFF1F081BFF1F33
:10542000084A094B12781B78DBB29A4207D0013345
:10543000402B28BF0023054AD05CC0B270474FF014
:10544000FF3070470C1BFF1F0D1BFF1F541BFF1F5E
:105450000D4B1B685B0516D530B40C4B0C4CDA7841
:105460000C480D4902F0CB024025DA705D74DA7801
:1054700042F03402DA7023780268DBB20B700AB1B2
:105480000023137030BC70473480044000A00640F5
:105490000D1BFF1F081BFF1F0C1BFF1FF0B4384B19
:1054A0001A7912F0300F2CD072B6997D01F0FF02FC
:1054B00000293DD062B6334F334938780D78334EEA
:1054C0001C46C0B2EDB2431C402BE17928BF00233B
:1054D000AB4202F1FF32C9B21CBFF154184612F0C0
:1054E000FF02F0D12A4B1B68C2B23A704BB1A842FE
:1054F00036BFC5F14005401B40192728C4BF012213
:105500001A701F49CA78D2B2150616D452060DD5A4
:105510001B4B1B795B0609D51E4B1F491B680022DC
:105520000A7003B11A70164B3C22DA70F0BC704757
:105530004022D9795A7462B6E3E70B791C06E5D5A7
:10554000164B174E1C783378E4B2DBB29C420ED077
:10555000144D01E0A3420AD00133402B28BF0023A1
:105560000879E85CC0B2C871087D0728F2D9DBB2BF
:10557000034933700B79180644BF7C23CB70C5E711
:1055800000A006400C1BFF1F0D1BFF1F541BFF1F1D
:10559000081BFF1F981BFF1F941BFF1F9C1BFF1F57
:1055A000951BFF1F101BFF1F2DE9F84F214B1B6898
:1055B00007460BB101221A70DFF888901E4D99F84A
:1055C0000040DFF884801D4E0134272C8ABF4FF045
:1055D000000A5FFA84FA5446AB462B78A34216D1F0
:1055E000FFF7CCF940281FDC33791B06F5D59BF873
:1055F00000300133272B86BF00221346DAB218F899
:105600000330DBB2F3712A702B78A342E8D00C4947
:105610000A4BFFB208F804700120AC22087089F828
:1056200000A0DA70BDE8F88FFF28D6DD01F00EFD8E
:10563000D3E700BF141CFF1F111CFF1F00D0064042
:10564000101CFF1F181CFF1FA81BFF1F244A254901
:105650001368F0B443F4005313600A78224F234ECA
:10566000234D244C244900231F2A3B7033702B7098
:1056700023700B702FD03F2A20D0204B1B78202B7B
:1056800024D03E2B03D11E4B4FF451721A601D4B98
:105690001D4D1E49C0F344361E70C0F3471400224E
:1056A0002C27402600F01F005C70987220249A700E
:1056B0001A74DF702E700C60F0BC7047144B40F20F
:1056C00013321A600D4B1B78202BDAD1114B4FF49B
:1056D00051721A60DBE7104B40F213321A60CCE7CC
:1056E00034800440ED0AFF1FA41BFF1FA51BFF1FF2
:1056F000181CFF1F111CFF1F101CFF1FEE0AFF1FAD
:1057000010D0044000D0064025E400E004E100E0B1
:1057100014D004402CA0044028A00440194B19497F
:105720009B7803F0EC0200F003031343420700F000
:105730000F0248BF43F01003042A8B701CD0114B9A
:10574000104A5B79C10603F0EF0348BF43F0100332
:1057500053719379820603F0EF030A4A48BF43F07E
:1057600010039371C30506D553781178DBB241F06D
:1057700020011170537070478B7943F040038B7197
:10578000DDE700BF00D00640204B1B689B043BD5E3
:1057900010B51F4C237823B101F058FC2378002B5F
:1057A000FAD11C481C491D4B202400220460CA70F9
:1057B0001B781F2B19D03F2B01D1194B1A60194BA5
:1057C0001B7803F07F03202B19D03E2B02D1164B00
:1057D00000221A60154B164816491A6800230370F8
:1057E0000B700AB10123137010BD134B40F203126A
:1057F0001A600C4B1B7803F07F03202BE5D10F4B75
:1058000040F203121A60E5E7704700BF348004409D
:10581000101CFF1F84E100E000D00640ED0AFF1FCE
:1058200014D00440EE0AFF1F10D00440A01BFF1F3D
:10583000A41BFF1FA51BFF1F28A004402CA0044091
:105840000A4A38B50546137803F0FF04002BFAD155
:1058500001212846FFF7A8F921462846FFF79EF9BF
:10586000034A044B52F835201A6038BD101CFF1F44
:1058700060890000141CFF1F09B140F08000174A26
:105880001378984217D010B4154C2468A4040FD58F
:1058900003F07F03202B1DD03E2B12D0002900F0F7
:1058A0007F0114BF6023442320290ED03E2903D05A
:1058B00010705DF8044B70470A4943F440730B6065
:1058C000F6E7084B00241C60E8E7074943F44073FF
:1058D0000B60EDE7044B00241C60DFE7EE0AFF1FBE
:1058E0003480044010D004402CA00440124B1A789D
:1058F00082420CD011490968890407D51F2A16D0A5
:105900003F2A0AD01F280DD03F2801D018707047B9
:105910000B4A40F213311160F8E7094A00211F28B1
:105920001160F1D1074A40F213311160EEE7054AE8
:1059300000211160E6E700BFED0AFF1F348004403C
:1059400014D0044028A004400D4B1B6813F40053EE
:1059500005D03F2805D90B4B00201860704718462A
:105960007047094B10B5074C53F8303023600121C4
:10597000FFF71AF9236800221A70012010BD00BF3A
:1059800034800440A01BFF1F608900000020704786
:10599000034B1B689B0401D5FFF706BE704700BF91
:1059A0003480044070B5094E04464518AC4204F1F9
:1059B00001040AD033689B04F8D514F8010CFFF7F2
:1059C000F3FDAC4204F10104F4D170BD3480044015
:1059D00010B5044C237823B101F038FB2378002B59
:1059E000FAD110BD101CFF1F064A074B1B78107818
:1059F000DBB2C0B283422CBF273000F1FF30C01AA7
:105A0000704700BF111CFF1F181CFF1F054A064BE3
:105A100010781B78C0B2DBB2984238BF4030C01A51
:105A2000704700BFA41BFF1FA51BFF1F30B4154B01
:105A3000154C1A782378D2B2DBB29A421ED00133C9
:105A40003F2B0ED91149124B087819680023C0B2B8
:105A5000237021B1D31A1A2B01DC00230B7030BC48
:105A600070470A480A49C05C0968DDB2C0B22570B7
:105A70000029F4D09A4238BF4032EBE74FF0FF30B4
:105A8000EDE700BFA41BFF1FA51BFF1FD01BFF1FBF
:105A9000A01BFF1F084A094B12781B78DBB29A4201
:105AA00007D00133402B28BF0023054AD05CC0B289
:105AB00070474FF0FF307047A41BFF1FA51BFF1F4F
:105AC000D01BFF1F054B064A1B7806491268DBB244
:105AD0000B700AB100231370704700BFA51BFF1F96
